{
  "_format": "hh-sol-artifact-1",
  "contractName": "Crowdfunding",
  "sourceName": "contracts/Crowdfunding.sol",
  "abi": [
    {
      "inputs": [],
      "stateMutability": "nonpayable",
      "type": "constructor"
    },
    {
      "inputs": [],
      "name": "ReentrancyGuardReentrantCall",
      "type": "error"
    },
    {
      "anonymous": false,
      "inputs": [
        {
          "indexed": true,
          "internalType": "uint256",
          "name": "id",
          "type": "uint256"
        },
        {
          "indexed": false,
          "internalType": "bool",
          "name": "approved",
          "type": "bool"
        }
      ],
      "name": "Approved",
      "type": "event"
    },
    {
      "anonymous": false,
      "inputs": [
        {
          "indexed": true,
          "internalType": "uint256",
          "name": "id",
          "type": "uint256"
        },
        {
          "indexed": true,
          "internalType": "address",
          "name": "owner",
          "type": "address"
        },
        {
          "indexed": false,
          "internalType": "string",
          "name": "title",
          "type": "string"
        },
        {
          "indexed": false,
          "internalType": "uint256",
          "name": "goal",
          "type": "uint256"
        },
        {
          "indexed": false,
          "internalType": "uint256",
          "name": "deadline",
          "type": "uint256"
        }
      ],
      "name": "CampaignCreated",
      "type": "event"
    },
    {
      "anonymous": false,
      "inputs": [
        {
          "indexed": true,
          "internalType": "uint256",
          "name": "id",
          "type": "uint256"
        },
        {
          "indexed": true,
          "internalType": "address",
          "name": "contributor",
          "type": "address"
        },
        {
          "indexed": false,
          "internalType": "uint256",
          "name": "amount",
          "type": "uint256"
        }
      ],
      "name": "Contributed",
      "type": "event"
    },
    {
      "anonymous": false,
      "inputs": [
        {
          "indexed": true,
          "internalType": "uint256",
          "name": "id",
          "type": "uint256"
        },
        {
          "indexed": false,
          "internalType": "string",
          "name": "media",
          "type": "string"
        },
        {
          "indexed": false,
          "internalType": "string",
          "name": "externalLink",
          "type": "string"
        }
      ],
      "name": "MediaUpdated",
      "type": "event"
    },
    {
      "anonymous": false,
      "inputs": [
        {
          "indexed": true,
          "internalType": "uint256",
          "name": "id",
          "type": "uint256"
        },
        {
          "indexed": true,
          "internalType": "address",
          "name": "contributor",
          "type": "address"
        },
        {
          "indexed": false,
          "internalType": "uint256",
          "name": "amount",
          "type": "uint256"
        }
      ],
      "name": "Refunded",
      "type": "event"
    },
    {
      "anonymous": false,
      "inputs": [
        {
          "indexed": true,
          "internalType": "uint256",
          "name": "id",
          "type": "uint256"
        },
        {
          "indexed": true,
          "internalType": "address",
          "name": "owner",
          "type": "address"
        },
        {
          "indexed": false,
          "internalType": "uint256",
          "name": "amount",
          "type": "uint256"
        }
      ],
      "name": "Withdrawn",
      "type": "event"
    },
    {
      "inputs": [],
      "name": "admin",
      "outputs": [
        {
          "internalType": "address",
          "name": "",
          "type": "address"
        }
      ],
      "stateMutability": "view",
      "type": "function"
    },
    {
      "inputs": [
        {
          "internalType": "uint256",
          "name": "_id",
          "type": "uint256"
        },
        {
          "internalType": "bool",
          "name": "_approved",
          "type": "bool"
        }
      ],
      "name": "approveCampaign",
      "outputs": [],
      "stateMutability": "nonpayable",
      "type": "function"
    },
    {
      "inputs": [
        {
          "internalType": "uint256",
          "name": "",
          "type": "uint256"
        }
      ],
      "name": "campaigns",
      "outputs": [
        {
          "internalType": "address",
          "name": "owner",
          "type": "address"
        },
        {
          "internalType": "string",
          "name": "title",
          "type": "string"
        },
        {
          "internalType": "string",
          "name": "description",
          "type": "string"
        },
        {
          "internalType": "uint256",
          "name": "goal",
          "type": "uint256"
        },
        {
          "internalType": "uint256",
          "name": "deadline",
          "type": "uint256"
        },
        {
          "internalType": "uint256",
          "name": "totalRaised",
          "type": "uint256"
        },
        {
          "internalType": "bool",
          "name": "withdrawn",
          "type": "bool"
        },
        {
          "internalType": "bool",
          "name": "exists",
          "type": "bool"
        },
        {
          "internalType": "string",
          "name": "media",
          "type": "string"
        },
        {
          "internalType": "string",
          "name": "externalLink",
          "type": "string"
        },
        {
          "internalType": "bool",
          "name": "approved",
          "type": "bool"
        }
      ],
      "stateMutability": "view",
      "type": "function"
    },
    {
      "inputs": [
        {
          "internalType": "uint256",
          "name": "_id",
          "type": "uint256"
        }
      ],
      "name": "contribute",
      "outputs": [],
      "stateMutability": "payable",
      "type": "function"
    },
    {
      "inputs": [
        {
          "internalType": "uint256",
          "name": "",
          "type": "uint256"
        },
        {
          "internalType": "address",
          "name": "",
          "type": "address"
        }
      ],
      "name": "contributions",
      "outputs": [
        {
          "internalType": "uint256",
          "name": "",
          "type": "uint256"
        }
      ],
      "stateMutability": "view",
      "type": "function"
    },
    {
      "inputs": [
        {
          "internalType": "string",
          "name": "_title",
          "type": "string"
        },
        {
          "internalType": "string",
          "name": "_description",
          "type": "string"
        },
        {
          "internalType": "string",
          "name": "_media",
          "type": "string"
        },
        {
          "internalType": "string",
          "name": "_externalLink",
          "type": "string"
        },
        {
          "internalType": "uint256",
          "name": "_goal",
          "type": "uint256"
        },
        {
          "internalType": "uint256",
          "name": "_durationDays",
          "type": "uint256"
        }
      ],
      "name": "createCampaign",
      "outputs": [
        {
          "internalType": "uint256",
          "name": "",
          "type": "uint256"
        }
      ],
      "stateMutability": "nonpayable",
      "type": "function"
    },
    {
      "inputs": [
        {
          "internalType": "uint256",
          "name": "_id",
          "type": "uint256"
        }
      ],
      "name": "getCampaign",
      "outputs": [
        {
          "components": [
            {
              "internalType": "address",
              "name": "owner",
              "type": "address"
            },
            {
              "internalType": "string",
              "name": "title",
              "type": "string"
            },
            {
              "internalType": "string",
              "name": "description",
              "type": "string"
            },
            {
              "internalType": "uint256",
              "name": "goal",
              "type": "uint256"
            },
            {
              "internalType": "uint256",
              "name": "deadline",
              "type": "uint256"
            },
            {
              "internalType": "uint256",
              "name": "totalRaised",
              "type": "uint256"
            },
            {
              "internalType": "bool",
              "name": "withdrawn",
              "type": "bool"
            },
            {
              "internalType": "bool",
              "name": "exists",
              "type": "bool"
            },
            {
              "internalType": "string",
              "name": "media",
              "type": "string"
            },
            {
              "internalType": "string",
              "name": "externalLink",
              "type": "string"
            },
            {
              "internalType": "bool",
              "name": "approved",
              "type": "bool"
            }
          ],
          "internalType": "struct Crowdfunding.Campaign",
          "name": "",
          "type": "tuple"
        }
      ],
      "stateMutability": "view",
      "type": "function"
    },
    {
      "inputs": [
        {
          "internalType": "uint256",
          "name": "_id",
          "type": "uint256"
        }
      ],
      "name": "getTimeLeft",
      "outputs": [
        {
          "internalType": "uint256",
          "name": "",
          "type": "uint256"
        }
      ],
      "stateMutability": "view",
      "type": "function"
    },
    {
      "inputs": [],
      "name": "nextId",
      "outputs": [
        {
          "internalType": "uint256",
          "name": "",
          "type": "uint256"
        }
      ],
      "stateMutability": "view",
      "type": "function"
    },
    {
      "inputs": [
        {
          "internalType": "uint256",
          "name": "_id",
          "type": "uint256"
        }
      ],
      "name": "refund",
      "outputs": [],
      "stateMutability": "nonpayable",
      "type": "function"
    },
    {
      "inputs": [
        {
          "internalType": "uint256",
          "name": "_id",
          "type": "uint256"
        },
        {
          "internalType": "string",
          "name": "_media",
          "type": "string"
        },
        {
          "internalType": "string",
          "name": "_externalLink",
          "type": "string"
        }
      ],
      "name": "setMedia",
      "outputs": [],
      "stateMutability": "nonpayable",
      "type": "function"
    },
    {
      "inputs": [
        {
          "internalType": "uint256",
          "name": "_id",
          "type": "uint256"
        }
      ],
      "name": "withdraw",
      "outputs": [],
      "stateMutability": "nonpayable",
      "type": "function"
    }
  ],
  "bytecode": "0x6080604052348015600f57600080fd5b506001600055600480546001600160a01b03191633179055611c22806100366000396000f3fe6080604052600436106100a75760003560e01c8063a8aee94011610064578063a8aee940146101b7578063c1cbbca7146101d7578063c82d573d146101ea578063e8c587631461020a578063e8fb4fea1461022a578063f851a4401461024a57600080fd5b8063141961bc146100ac578063278ecde1146100ec5780632e1a7d4d1461010e5780633d891f591461012e5780635598f8cc1461017457806361b8ce8c146101a1575b600080fd5b3480156100b857600080fd5b506100cc6100c7366004611424565b610282565b6040516100e39b9a99989796959493929190611483565b60405180910390f35b3480156100f857600080fd5b5061010c610107366004611424565b61050f565b005b34801561011a57600080fd5b5061010c610129366004611424565b610753565b34801561013a57600080fd5b50610166610149366004611528565b600360209081526000928352604080842090915290825290205481565b6040519081526020016100e3565b34801561018057600080fd5b5061019461018f366004611424565b6109eb565b6040516100e39190611564565b3480156101ad57600080fd5b5061016660015481565b3480156101c357600080fd5b506101666101d23660046116fe565b610d5f565b61010c6101e5366004611424565b610fb6565b3480156101f657600080fd5b5061010c610205366004611819565b611198565b34801561021657600080fd5b50610166610225366004611424565b6112ae565b34801561023657600080fd5b5061010c610245366004611898565b611321565b34801561025657600080fd5b5060045461026a906001600160a01b031681565b6040516001600160a01b0390911681526020016100e3565b600260205260009081526040902080546001820180546001600160a01b0390921692916102ae906118c2565b80601f01602080910402602001604051908101604052809291908181526020018280546102da906118c2565b80156103275780601f106102fc57610100808354040283529160200191610327565b820191906000526020600020905b81548152906001019060200180831161030a57829003601f168201915b50505050509080600201805461033c906118c2565b80601f0160208091040260200160405190810160405280929190818152602001828054610368906118c2565b80156103b55780601f1061038a576101008083540402835291602001916103b5565b820191906000526020600020905b81548152906001019060200180831161039857829003601f168201915b50505050600383015460048401546005850154600686015460078701805496979496939550919360ff80831694610100909304169290916103f5906118c2565b80601f0160208091040260200160405190810160405280929190818152602001828054610421906118c2565b801561046e5780601f106104435761010080835404028352916020019161046e565b820191906000526020600020905b81548152906001019060200180831161045157829003601f168201915b505050505090806008018054610483906118c2565b80601f01602080910402602001604051908101604052809291908181526020018280546104af906118c2565b80156104fc5780601f106104d1576101008083540402835291602001916104fc565b820191906000526020600020905b8154815290600101906020018083116104df57829003601f168201915b5050506009909301549192505060ff168b565b6000818152600260205260409020600601548190610100900460ff166105505760405162461bcd60e51b8152600401610547906118f6565b60405180910390fd5b6105586113fa565b6000828152600260205260409020600481015442116105b25760405162461bcd60e51b815260206004820152601660248201527510d85b5c185a59db881b9bdd08195b991959081e595d60521b6044820152606401610547565b80600301548160050154106106095760405162461bcd60e51b815260206004820152601860248201527f476f616c20726561636865643b206e6f20726566756e647300000000000000006044820152606401610547565b6000838152600360209081526040808320338452909152902054806106645760405162461bcd60e51b8152602060048201526011602482015270139bdd1a1a5b99c81d1bc81c99599d5b99607a1b6044820152606401610547565b60008481526003602090815260408083203380855292528083208390555183908381818185875af1925050503d80600081146106bc576040519150601f19603f3d011682016040523d82523d6000602084013e6106c1565b606091505b505090508061070b5760405162461bcd60e51b81526020600482015260166024820152751499599d5b99081d1c985b9cd9995c8819985a5b195960521b6044820152606401610547565b604051828152339086907f7ca5472b7ea78c2c0141c5a12ee6d170cf4ce8ed06be3d22c8252ddfc7a6a2c49060200160405180910390a350505061074f6001600055565b5050565b6000818152600260205260409020600601548190610100900460ff1661078b5760405162461bcd60e51b8152600401610547906118f6565b60008281526002602052604090205482906001600160a01b031633146107e85760405162461bcd60e51b81526020600482015260126024820152712737ba1031b0b6b830b4b3b71037bbb732b960711b6044820152606401610547565b6107f06113fa565b600083815260026020526040902060048101544210158061081957508060030154816005015410155b61085a5760405162461bcd60e51b8152602060048201526012602482015271139bdd081c995b19585cd8589b19481e595d60721b6044820152606401610547565b8060030154816005015410156108a55760405162461bcd60e51b815260206004820152601060248201526f11dbd85b081b9bdd081c995858da195960821b6044820152606401610547565b600681015460ff16156108ee5760405162461bcd60e51b815260206004820152601160248201527020b63932b0b23c903bb4ba34323930bbb760791b6044820152606401610547565b60068101805460ff19166001179055600581015481546040516000916001600160a01b03169083908381818185875af1925050503d806000811461094e576040519150601f19603f3d011682016040523d82523d6000602084013e610953565b606091505b50509050806109965760405162461bcd60e51b815260206004820152600f60248201526e151c985b9cd9995c8819985a5b1959608a1b6044820152606401610547565b82546040518381526001600160a01b039091169087907fcf7d23a3cbe4e8b36ff82fd1b05b1b17373dc7804b4ebbd6e2356716ef2023729060200160405180910390a35050506109e66001600055565b505050565b610a5760405180610160016040528060006001600160a01b03168152602001606081526020016060815260200160008152602001600081526020016000815260200160001515815260200160001515815260200160608152602001606081526020016000151581525090565b6000828152600260205260409020600601548290610100900460ff16610a8f5760405162461bcd60e51b8152600401610547906118f6565b6000838152600260209081526040918290208251610160810190935280546001600160a01b031683526001810180549192840191610acc906118c2565b80601f0160208091040260200160405190810160405280929190818152602001828054610af8906118c2565b8015610b455780601f10610b1a57610100808354040283529160200191610b45565b820191906000526020600020905b815481529060010190602001808311610b2857829003601f168201915b50505050508152602001600282018054610b5e906118c2565b80601f0160208091040260200160405190810160405280929190818152602001828054610b8a906118c2565b8015610bd75780601f10610bac57610100808354040283529160200191610bd7565b820191906000526020600020905b815481529060010190602001808311610bba57829003601f168201915b5050509183525050600382015460208201526004820154604082015260058201546060820152600682015460ff8082161515608084015261010090910416151560a082015260078201805460c090920191610c31906118c2565b80601f0160208091040260200160405190810160405280929190818152602001828054610c5d906118c2565b8015610caa5780601f10610c7f57610100808354040283529160200191610caa565b820191906000526020600020905b815481529060010190602001808311610c8d57829003601f168201915b50505050508152602001600882018054610cc3906118c2565b80601f0160208091040260200160405190810160405280929190818152602001828054610cef906118c2565b8015610d3c5780601f10610d1157610100808354040283529160200191610d3c565b820191906000526020600020905b815481529060010190602001808311610d1f57829003601f168201915b50505091835250506009919091015460ff16151560209091015291505b50919050565b6000808311610da35760405162461bcd60e51b815260206004820152601060248201526f0476f616c206d757374206265203e20360841b6044820152606401610547565b60008211610dea5760405162461bcd60e51b815260206004820152601460248201527304475726174696f6e206d757374206265203e20360641b6044820152606401610547565b6001805460009182610dfb83611943565b919050559050604051806101600160405280336001600160a01b031681526020018981526020018881526020018581526020018462015180610e3d919061195c565b610e479042611979565b8152600060208083018290526040808401839052600160608501819052608085018c905260a085018b905260c090940183905285835260028252909120835181546001600160a01b0319166001600160a01b03909116178155908301519091820190610eb390826119da565b5060408201516002820190610ec890826119da565b50606082015160038201556080820151600482015560a0820151600582015560c082015160068201805460e085015161ffff1990911692151561ff0019169290921761010092151583021790558201516007820190610f2790826119da565b506101208201516008820190610f3d90826119da565b5061014091909101516009909101805460ff191691151591909117905560008181526002602052604090819020600401549051339183917fdc26653af5b99b2da33e2ad69ee6600d9aeccc82b034501db4338309615ca23891610fa3918d918a91611a99565b60405180910390a3979650505050505050565b6000818152600260205260409020600601548190610100900460ff16610fee5760405162461bcd60e51b8152600401610547906118f6565b610ff66113fa565b6000828152600260205260409020600981015460ff166110475760405162461bcd60e51b815260206004820152600c60248201526b139bdd08185c1c1c9bdd995960a21b6044820152606401610547565b600681015460ff16156110905760405162461bcd60e51b815260206004820152601160248201527020b63932b0b23c903bb4ba34323930bbb760791b6044820152606401610547565b806004015442106110d45760405162461bcd60e51b815260206004820152600e60248201526d10d85b5c185a59db88195b99195960921b6044820152606401610547565b6000341161110f5760405162461bcd60e51b81526020600482015260086024820152674e6f2076616c756560c01b6044820152606401610547565b348160050160008282546111239190611979565b9091555050600083815260036020908152604080832033845290915281208054349290611151908490611979565b9091555050604051348152339084907fb2ed2e021651f85a4754a44651fc09ac5141bc0329ce4dfe8dd712a5d04a8b399060200160405180910390a35061074f6001600055565b6000858152600260205260409020600601548590610100900460ff166111d05760405162461bcd60e51b8152600401610547906118f6565b60008681526002602052604090205486906001600160a01b0316331461122d5760405162461bcd60e51b81526020600482015260126024820152712737ba1031b0b6b830b4b3b71037bbb732b960711b6044820152606401610547565b6000878152600260205260409020600701611249868883611abe565b506000878152600260205260409020600801611266848683611abe565b50867fdfece0ed9684081bf2548958c853b555433914d14216b8ba04289866089db69c8787878760405161129d9493929190611ba7565b60405180910390a250505050505050565b6000818152600260205260408120600601548290610100900460ff166112e65760405162461bcd60e51b8152600401610547906118f6565b600083815260026020526040902060048101544210611309576000925050610d59565b4281600401546113199190611bd9565b949350505050565b6004546001600160a01b031633146113675760405162461bcd60e51b81526020600482015260096024820152682737ba1030b236b4b760b91b6044820152606401610547565b6000828152600260205260409020600601548290610100900460ff1661139f5760405162461bcd60e51b8152600401610547906118f6565b600083815260026020908152604091829020600901805460ff1916851515908117909155915191825284917fb3932da477fe5d6c8ff2eafef050c0f3a1af18fc07121001482600f36f3715d8910160405180910390a2505050565b60026000540361141d57604051633ee5aeb560e01b815260040160405180910390fd5b6002600055565b60006020828403121561143657600080fd5b5035919050565b6000815180845260005b8181101561146357602081850181015186830182015201611447565b506000602082860101526020601f19601f83011685010191505092915050565b6001600160a01b038c168152610160602082018190526000906114a89083018d61143d565b82810360408401526114ba818d61143d565b90508a60608401528960808401528860a084015287151560c084015286151560e08401528281036101008401526114f1818761143d565b9050828103610120840152611506818661143d565b91505061151861014083018415159052565b9c9b505050505050505050505050565b6000806040838503121561153b57600080fd5b8235915060208301356001600160a01b038116811461155957600080fd5b809150509250929050565b6020815261157e6020820183516001600160a01b03169052565b60006020830151610160604084015261159b61018084018261143d565b90506040840151601f198483030160608501526115b8828261143d565b91505060608401516080840152608084015160a084015260a084015160c084015260c08401516115ec60e085018215159052565b5060e084015180151561010085015250610100840151838203601f1901610120850152611619828261143d565b915050610120840151601f1984830301610140850152611639828261143d565b91505061014084015161165161016085018215159052565b509392505050565b634e487b7160e01b600052604160045260246000fd5b600082601f83011261168057600080fd5b813567ffffffffffffffff81111561169a5761169a611659565b604051601f8201601f19908116603f0116810167ffffffffffffffff811182821017156116c9576116c9611659565b6040528181528382016020018510156116e157600080fd5b816020850160208301376000918101602001919091529392505050565b60008060008060008060c0878903121561171757600080fd5b863567ffffffffffffffff81111561172e57600080fd5b61173a89828a0161166f565b965050602087013567ffffffffffffffff81111561175757600080fd5b61176389828a0161166f565b955050604087013567ffffffffffffffff81111561178057600080fd5b61178c89828a0161166f565b945050606087013567ffffffffffffffff8111156117a957600080fd5b6117b589828a0161166f565b9699959850939660808101359560a090910135945092505050565b60008083601f8401126117e257600080fd5b50813567ffffffffffffffff8111156117fa57600080fd5b60208301915083602082850101111561181257600080fd5b9250929050565b60008060008060006060868803121561183157600080fd5b85359450602086013567ffffffffffffffff81111561184f57600080fd5b61185b888289016117d0565b909550935050604086013567ffffffffffffffff81111561187b57600080fd5b611887888289016117d0565b969995985093965092949392505050565b600080604083850312156118ab57600080fd5b823591506020830135801515811461155957600080fd5b600181811c908216806118d657607f821691505b602082108103610d5957634e487b7160e01b600052602260045260246000fd5b60208082526017908201527f43616d706169676e20646f6573206e6f74206578697374000000000000000000604082015260600190565b634e487b7160e01b600052601160045260246000fd5b6000600182016119555761195561192d565b5060010190565b80820281158282048414176119735761197361192d565b92915050565b808201808211156119735761197361192d565b601f8211156109e657806000526020600020601f840160051c810160208510156119b35750805b601f840160051c820191505b818110156119d357600081556001016119bf565b5050505050565b815167ffffffffffffffff8111156119f4576119f4611659565b611a0881611a0284546118c2565b8461198c565b6020601f821160018114611a3c5760008315611a245750848201515b600019600385901b1c1916600184901b1784556119d3565b600084815260208120601f198516915b82811015611a6c5787850151825560209485019460019092019101611a4c565b5084821015611a8a5786840151600019600387901b60f8161c191681555b50505050600190811b01905550565b606081526000611aac606083018661143d565b60208301949094525060400152919050565b67ffffffffffffffff831115611ad657611ad6611659565b611aea83611ae483546118c2565b8361198c565b6000601f841160018114611b1e5760008515611b065750838201355b600019600387901b1c1916600186901b1783556119d3565b600083815260209020601f19861690835b82811015611b4f5786850135825560209485019460019092019101611b2f565b5086821015611b6c5760001960f88860031b161c19848701351681555b505060018560011b0183555050505050565b81835281816020850137506000828201602090810191909152601f909101601f19169091010190565b604081526000611bbb604083018688611b7e565b8281036020840152611bce818587611b7e565b979650505050505050565b818103818111156119735761197361192d56fea264697066735822122086e1713a07102647ca0f3c46ef11b8c40c4fd3374ce1762f67dd4b9a0f34c9ea64736f6c634300081c0033",
  "linkReferences": {},
  "deployedLinkReferences": {}
}