{
  "_format": "hh3-artifact-1",
  "contractName": "Crowdfunding",
  "sourceName": "contracts/Crowdfunding.sol",
  "abi": [
    {
      "inputs": [],
      "name": "ReentrancyGuardReentrantCall",
      "type": "error"
    },
    {
      "anonymous": false,
      "inputs": [
        {
          "indexed": true,
          "internalType": "uint256",
          "name": "id",
          "type": "uint256"
        },
        {
          "indexed": true,
          "internalType": "address",
          "name": "owner",
          "type": "address"
        },
        {
          "indexed": false,
          "internalType": "string",
          "name": "title",
          "type": "string"
        },
        {
          "indexed": false,
          "internalType": "uint256",
          "name": "goal",
          "type": "uint256"
        },
        {
          "indexed": false,
          "internalType": "uint256",
          "name": "deadline",
          "type": "uint256"
        }
      ],
      "name": "CampaignCreated",
      "type": "event"
    },
    {
      "anonymous": false,
      "inputs": [
        {
          "indexed": true,
          "internalType": "uint256",
          "name": "id",
          "type": "uint256"
        },
        {
          "indexed": true,
          "internalType": "address",
          "name": "contributor",
          "type": "address"
        },
        {
          "indexed": false,
          "internalType": "uint256",
          "name": "amount",
          "type": "uint256"
        }
      ],
      "name": "Contributed",
      "type": "event"
    },
    {
      "anonymous": false,
      "inputs": [
        {
          "indexed": true,
          "internalType": "uint256",
          "name": "id",
          "type": "uint256"
        },
        {
          "indexed": true,
          "internalType": "address",
          "name": "contributor",
          "type": "address"
        },
        {
          "indexed": false,
          "internalType": "uint256",
          "name": "amount",
          "type": "uint256"
        }
      ],
      "name": "Refunded",
      "type": "event"
    },
    {
      "anonymous": false,
      "inputs": [
        {
          "indexed": true,
          "internalType": "uint256",
          "name": "id",
          "type": "uint256"
        },
        {
          "indexed": true,
          "internalType": "address",
          "name": "owner",
          "type": "address"
        },
        {
          "indexed": false,
          "internalType": "uint256",
          "name": "amount",
          "type": "uint256"
        }
      ],
      "name": "Withdrawn",
      "type": "event"
    },
    {
      "inputs": [
        {
          "internalType": "uint256",
          "name": "",
          "type": "uint256"
        }
      ],
      "name": "campaigns",
      "outputs": [
        {
          "internalType": "address",
          "name": "owner",
          "type": "address"
        },
        {
          "internalType": "string",
          "name": "title",
          "type": "string"
        },
        {
          "internalType": "string",
          "name": "description",
          "type": "string"
        },
        {
          "internalType": "uint256",
          "name": "goal",
          "type": "uint256"
        },
        {
          "internalType": "uint256",
          "name": "deadline",
          "type": "uint256"
        },
        {
          "internalType": "uint256",
          "name": "totalRaised",
          "type": "uint256"
        },
        {
          "internalType": "bool",
          "name": "withdrawn",
          "type": "bool"
        },
        {
          "internalType": "bool",
          "name": "exists",
          "type": "bool"
        }
      ],
      "stateMutability": "view",
      "type": "function"
    },
    {
      "inputs": [
        {
          "internalType": "uint256",
          "name": "_id",
          "type": "uint256"
        }
      ],
      "name": "contribute",
      "outputs": [],
      "stateMutability": "payable",
      "type": "function"
    },
    {
      "inputs": [
        {
          "internalType": "uint256",
          "name": "",
          "type": "uint256"
        },
        {
          "internalType": "address",
          "name": "",
          "type": "address"
        }
      ],
      "name": "contributions",
      "outputs": [
        {
          "internalType": "uint256",
          "name": "",
          "type": "uint256"
        }
      ],
      "stateMutability": "view",
      "type": "function"
    },
    {
      "inputs": [
        {
          "internalType": "string",
          "name": "_title",
          "type": "string"
        },
        {
          "internalType": "string",
          "name": "_description",
          "type": "string"
        },
        {
          "internalType": "uint256",
          "name": "_goal",
          "type": "uint256"
        },
        {
          "internalType": "uint256",
          "name": "_durationDays",
          "type": "uint256"
        }
      ],
      "name": "createCampaign",
      "outputs": [
        {
          "internalType": "uint256",
          "name": "",
          "type": "uint256"
        }
      ],
      "stateMutability": "nonpayable",
      "type": "function"
    },
    {
      "inputs": [
        {
          "internalType": "uint256",
          "name": "_id",
          "type": "uint256"
        }
      ],
      "name": "getCampaign",
      "outputs": [
        {
          "components": [
            {
              "internalType": "address",
              "name": "owner",
              "type": "address"
            },
            {
              "internalType": "string",
              "name": "title",
              "type": "string"
            },
            {
              "internalType": "string",
              "name": "description",
              "type": "string"
            },
            {
              "internalType": "uint256",
              "name": "goal",
              "type": "uint256"
            },
            {
              "internalType": "uint256",
              "name": "deadline",
              "type": "uint256"
            },
            {
              "internalType": "uint256",
              "name": "totalRaised",
              "type": "uint256"
            },
            {
              "internalType": "bool",
              "name": "withdrawn",
              "type": "bool"
            },
            {
              "internalType": "bool",
              "name": "exists",
              "type": "bool"
            }
          ],
          "internalType": "struct Crowdfunding.Campaign",
          "name": "",
          "type": "tuple"
        }
      ],
      "stateMutability": "view",
      "type": "function"
    },
    {
      "inputs": [
        {
          "internalType": "uint256",
          "name": "_id",
          "type": "uint256"
        }
      ],
      "name": "getTimeLeft",
      "outputs": [
        {
          "internalType": "uint256",
          "name": "",
          "type": "uint256"
        }
      ],
      "stateMutability": "view",
      "type": "function"
    },
    {
      "inputs": [],
      "name": "nextId",
      "outputs": [
        {
          "internalType": "uint256",
          "name": "",
          "type": "uint256"
        }
      ],
      "stateMutability": "view",
      "type": "function"
    },
    {
      "inputs": [
        {
          "internalType": "uint256",
          "name": "_id",
          "type": "uint256"
        }
      ],
      "name": "refund",
      "outputs": [],
      "stateMutability": "nonpayable",
      "type": "function"
    },
    {
      "inputs": [
        {
          "internalType": "uint256",
          "name": "_id",
          "type": "uint256"
        }
      ],
      "name": "withdraw",
      "outputs": [],
      "stateMutability": "nonpayable",
      "type": "function"
    }
  ],
  "bytecode": "0x6080604052348015600e575f5ffd5b5060015f81905550612259806100235f395ff3fe608060405260043610610085575f3560e01c80635598f8cc116100585780635598f8cc1461015857806361b8ce8c14610194578063a318f269146101be578063c1cbbca7146101fa578063e8c587631461021657610085565b8063141961bc14610089578063278ecde1146100cc5780632e1a7d4d146100f45780633d891f591461011c575b5f5ffd5b348015610094575f5ffd5b506100af60048036038101906100aa91906112f0565b610252565b6040516100c39897969594939291906113f3565b60405180910390f35b3480156100d7575f5ffd5b506100f260048036038101906100ed91906112f0565b6103da565b005b3480156100ff575f5ffd5b5061011a600480360381019061011591906112f0565b6106d2565b005b348015610127575f5ffd5b50610142600480360381019061013d91906114a7565b610a56565b60405161014f91906114e5565b60405180910390f35b348015610163575f5ffd5b5061017e600480360381019061017991906112f0565b610a76565b60405161018b9190611627565b60405180910390f35b34801561019f575f5ffd5b506101a8610ccc565b6040516101b591906114e5565b60405180910390f35b3480156101c9575f5ffd5b506101e460048036038101906101df9190611773565b610cd2565b6040516101f191906114e5565b60405180910390f35b610214600480360381019061020f91906112f0565b610f32565b005b348015610221575f5ffd5b5061023c600480360381019061023791906112f0565b611161565b60405161024991906114e5565b60405180910390f35b6002602052805f5260405f205f91509050805f015f9054906101000a900473ffffffffffffffffffffffffffffffffffffffff16908060010180546102969061183c565b80601f01602080910402602001604051908101604052809291908181526020018280546102c29061183c565b801561030d5780601f106102e45761010080835404028352916020019161030d565b820191905f5260205f20905b8154815290600101906020018083116102f057829003601f168201915b5050505050908060020180546103229061183c565b80601f016020809104026020016040519081016040528092919081815260200182805461034e9061183c565b80156103995780601f1061037057610100808354040283529160200191610399565b820191905f5260205f20905b81548152906001019060200180831161037c57829003601f168201915b505050505090806003015490806004015490806005015490806006015f9054906101000a900460ff16908060060160019054906101000a900460ff16905088565b8060025f8281526020019081526020015f2060060160019054906101000a900460ff1661043c576040517f08c379a0000000000000000000000000000000000000000000000000000000008152600401610433906118b6565b60405180910390fd5b610444611206565b5f60025f8481526020019081526020015f209050806004015442101561049f576040517f08c379a00000000000000000000000000000000000000000000000000000000081526004016104969061191e565b60405180910390fd5b80600301548160050154106104e9576040517f08c379a00000000000000000000000000000000000000000000000000000000081526004016104e090611986565b60405180910390fd5b5f60035f8581526020019081526020015f205f3373ffffffffffffffffffffffffffffffffffffffff1673ffffffffffffffffffffffffffffffffffffffff1681526020019081526020015f205490505f811161057b576040517f08c379a0000000000000000000000000000000000000000000000000000000008152600401610572906119ee565b60405180910390fd5b5f60035f8681526020019081526020015f205f3373ffffffffffffffffffffffffffffffffffffffff1673ffffffffffffffffffffffffffffffffffffffff1681526020019081526020015f20819055505f3373ffffffffffffffffffffffffffffffffffffffff16826040516105f190611a39565b5f6040518083038185875af1925050503d805f811461062b576040519150601f19603f3d011682016040523d82523d5f602084013e610630565b606091505b5050905080610674576040517f08c379a000000000000000000000000000000000000000000000000000000000815260040161066b90611a97565b60405180910390fd5b3373ffffffffffffffffffffffffffffffffffffffff16857f7ca5472b7ea78c2c0141c5a12ee6d170cf4ce8ed06be3d22c8252ddfc7a6a2c4846040516106bb91906114e5565b60405180910390a35050506106ce61124a565b5050565b8060025f8281526020019081526020015f2060060160019054906101000a900460ff16610734576040517f08c379a000000000000000000000000000000000000000000000000000000000815260040161072b906118b6565b60405180910390fd5b813373ffffffffffffffffffffffffffffffffffffffff1660025f8381526020019081526020015f205f015f9054906101000a900473ffffffffffffffffffffffffffffffffffffffff1673ffffffffffffffffffffffffffffffffffffffff16146107d5576040517f08c379a00000000000000000000000000000000000000000000000000000000081526004016107cc90611aff565b60405180910390fd5b6107dd611206565b5f60025f8581526020019081526020015f20905080600401544210158061080c57508060030154816005015410155b61084b576040517f08c379a000000000000000000000000000000000000000000000000000000000815260040161084290611b67565b60405180910390fd5b806003015481600501541015610896576040517f08c379a000000000000000000000000000000000000000000000000000000000815260040161088d90611bcf565b60405180910390fd5b806006015f9054906101000a900460ff16156108e7576040517f08c379a00000000000000000000000000000000000000000000000000000000081526004016108de90611c37565b60405180910390fd5b6001816006015f6101000a81548160ff0219169083151502179055505f816005015490505f825f015f9054906101000a900473ffffffffffffffffffffffffffffffffffffffff1673ffffffffffffffffffffffffffffffffffffffff168260405161095290611a39565b5f6040518083038185875af1925050503d805f811461098c576040519150601f19603f3d011682016040523d82523d5f602084013e610991565b606091505b50509050806109d5576040517f08c379a00000000000000000000000000000000000000000000000000000000081526004016109cc90611c9f565b60405180910390fd5b825f015f9054906101000a900473ffffffffffffffffffffffffffffffffffffffff1673ffffffffffffffffffffffffffffffffffffffff16867fcf7d23a3cbe4e8b36ff82fd1b05b1b17373dc7804b4ebbd6e2356716ef20237284604051610a3e91906114e5565b60405180910390a3505050610a5161124a565b505050565b6003602052815f5260405f20602052805f5260405f205f91509150505481565b610a7e611253565b8160025f8281526020019081526020015f2060060160019054906101000a900460ff16610ae0576040517f08c379a0000000000000000000000000000000000000000000000000000000008152600401610ad7906118b6565b60405180910390fd5b60025f8481526020019081526020015f20604051806101000160405290815f82015f9054906101000a900473ffffffffffffffffffffffffffffffffffffffff1673ffffffffffffffffffffffffffffffffffffffff1673ffffffffffffffffffffffffffffffffffffffff168152602001600182018054610b619061183c565b80601f0160208091040260200160405190810160405280929190818152602001828054610b8d9061183c565b8015610bd85780601f10610baf57610100808354040283529160200191610bd8565b820191905f5260205f20905b815481529060010190602001808311610bbb57829003601f168201915b50505050508152602001600282018054610bf19061183c565b80601f0160208091040260200160405190810160405280929190818152602001828054610c1d9061183c565b8015610c685780601f10610c3f57610100808354040283529160200191610c68565b820191905f5260205f20905b815481529060010190602001808311610c4b57829003601f168201915b50505050508152602001600382015481526020016004820154815260200160058201548152602001600682015f9054906101000a900460ff161515151581526020016006820160019054906101000a900460ff161515151581525050915050919050565b60015481565b5f5f8311610d15576040517f08c379a0000000000000000000000000000000000000000000000000000000008152600401610d0c90611d07565b60405180910390fd5b5f8211610d57576040517f08c379a0000000000000000000000000000000000000000000000000000000008152600401610d4e90611d6f565b60405180910390fd5b5f60015f815480929190610d6a90611dba565b9190505590506040518061010001604052803373ffffffffffffffffffffffffffffffffffffffff1681526020018781526020018681526020018581526020016201518085610db99190611e01565b42610dc49190611e42565b81526020015f81526020015f151581526020016001151581525060025f8381526020019081526020015f205f820151815f015f6101000a81548173ffffffffffffffffffffffffffffffffffffffff021916908373ffffffffffffffffffffffffffffffffffffffff1602179055506020820151816001019081610e489190612015565b506040820151816002019081610e5e9190612015565b50606082015181600301556080820151816004015560a0820151816005015560c0820151816006015f6101000a81548160ff02191690831515021790555060e08201518160060160016101000a81548160ff0219169083151502179055509050503373ffffffffffffffffffffffffffffffffffffffff16817fdc26653af5b99b2da33e2ad69ee6600d9aeccc82b034501db4338309615ca238888760025f8781526020019081526020015f2060040154604051610f1e939291906120e4565b60405180910390a380915050949350505050565b8060025f8281526020019081526020015f2060060160019054906101000a900460ff16610f94576040517f08c379a0000000000000000000000000000000000000000000000000000000008152600401610f8b906118b6565b60405180910390fd5b610f9c611206565b5f60025f8481526020019081526020015f209050806006015f9054906101000a900460ff1615611001576040517f08c379a0000000000000000000000000000000000000000000000000000000008152600401610ff890611c37565b60405180910390fd5b80600401544210611047576040517f08c379a000000000000000000000000000000000000000000000000000000000815260040161103e9061216a565b60405180910390fd5b5f3411611089576040517f08c379a0000000000000000000000000000000000000000000000000000000008152600401611080906121d2565b60405180910390fd5b34816005015f82825461109c9190611e42565b925050819055503460035f8581526020019081526020015f205f3373ffffffffffffffffffffffffffffffffffffffff1673ffffffffffffffffffffffffffffffffffffffff1681526020019081526020015f205f8282546110fe9190611e42565b925050819055503373ffffffffffffffffffffffffffffffffffffffff16837fb2ed2e021651f85a4754a44651fc09ac5141bc0329ce4dfe8dd712a5d04a8b393460405161114c91906114e5565b60405180910390a35061115d61124a565b5050565b5f8160025f8281526020019081526020015f2060060160019054906101000a900460ff166111c4576040517f08c379a00000000000000000000000000000000000000000000000000000000081526004016111bb906118b6565b60405180910390fd5b5f60025f8581526020019081526020015f209050806004015442106111ec575f925050611200565b4281600401546111fc91906121f0565b9250505b50919050565b60025f5403611241576040517f3ee5aeb500000000000000000000000000000000000000000000000000000000815260040160405180910390fd5b60025f81905550565b60015f81905550565b6040518061010001604052805f73ffffffffffffffffffffffffffffffffffffffff16815260200160608152602001606081526020015f81526020015f81526020015f81526020015f151581526020015f151581525090565b5f604051905090565b5f5ffd5b5f5ffd5b5f819050919050565b6112cf816112bd565b81146112d9575f5ffd5b50565b5f813590506112ea816112c6565b92915050565b5f60208284031215611305576113046112b5565b5b5f611312848285016112dc565b91505092915050565b5f73ffffffffffffffffffffffffffffffffffffffff82169050919050565b5f6113448261131b565b9050919050565b6113548161133a565b82525050565b5f81519050919050565b5f82825260208201905092915050565b8281835e5f83830152505050565b5f601f19601f8301169050919050565b5f61139c8261135a565b6113a68185611364565b93506113b6818560208601611374565b6113bf81611382565b840191505092915050565b6113d3816112bd565b82525050565b5f8115159050919050565b6113ed816113d9565b82525050565b5f610100820190506114075f83018b61134b565b8181036020830152611419818a611392565b9050818103604083015261142d8189611392565b905061143c60608301886113ca565b61144960808301876113ca565b61145660a08301866113ca565b61146360c08301856113e4565b61147060e08301846113e4565b9998505050505050505050565b6114868161133a565b8114611490575f5ffd5b50565b5f813590506114a18161147d565b92915050565b5f5f604083850312156114bd576114bc6112b5565b5b5f6114ca858286016112dc565b92505060206114db85828601611493565b9150509250929050565b5f6020820190506114f85f8301846113ca565b92915050565b6115078161133a565b82525050565b5f82825260208201905092915050565b5f6115278261135a565b611531818561150d565b9350611541818560208601611374565b61154a81611382565b840191505092915050565b61155e816112bd565b82525050565b61156d816113d9565b82525050565b5f61010083015f8301516115895f8601826114fe565b50602083015184820360208601526115a1828261151d565b915050604083015184820360408601526115bb828261151d565b91505060608301516115d06060860182611555565b5060808301516115e36080860182611555565b5060a08301516115f660a0860182611555565b5060c083015161160960c0860182611564565b5060e083015161161c60e0860182611564565b508091505092915050565b5f6020820190508181035f83015261163f8184611573565b905092915050565b5f5ffd5b5f5ffd5b7f4e487b71000000000000000000000000000000000000000000000000000000005f52604160045260245ffd5b61168582611382565b810181811067ffffffffffffffff821117156116a4576116a361164f565b5b80604052505050565b5f6116b66112ac565b90506116c2828261167c565b919050565b5f67ffffffffffffffff8211156116e1576116e061164f565b5b6116ea82611382565b9050602081019050919050565b828183375f83830152505050565b5f611717611712846116c7565b6116ad565b9050828152602081018484840111156117335761173261164b565b5b61173e8482856116f7565b509392505050565b5f82601f83011261175a57611759611647565b5b813561176a848260208601611705565b91505092915050565b5f5f5f5f6080858703121561178b5761178a6112b5565b5b5f85013567ffffffffffffffff8111156117a8576117a76112b9565b5b6117b487828801611746565b945050602085013567ffffffffffffffff8111156117d5576117d46112b9565b5b6117e187828801611746565b93505060406117f2878288016112dc565b9250506060611803878288016112dc565b91505092959194509250565b7f4e487b71000000000000000000000000000000000000000000000000000000005f52602260045260245ffd5b5f600282049050600182168061185357607f821691505b6020821081036118665761186561180f565b5b50919050565b7f43616d706169676e20646f6573206e6f742065786973740000000000000000005f82015250565b5f6118a0601783611364565b91506118ab8261186c565b602082019050919050565b5f6020820190508181035f8301526118cd81611894565b9050919050565b7f4e6f7420656e64656400000000000000000000000000000000000000000000005f82015250565b5f611908600983611364565b9150611913826118d4565b602082019050919050565b5f6020820190508181035f830152611935816118fc565b9050919050565b7f476f616c207265616368656400000000000000000000000000000000000000005f82015250565b5f611970600c83611364565b915061197b8261193c565b602082019050919050565b5f6020820190508181035f83015261199d81611964565b9050919050565b7f4e6f7468696e6720746f20726566756e640000000000000000000000000000005f82015250565b5f6119d8601183611364565b91506119e3826119a4565b602082019050919050565b5f6020820190508181035f830152611a05816119cc565b9050919050565b5f81905092915050565b50565b5f611a245f83611a0c565b9150611a2f82611a16565b5f82019050919050565b5f611a4382611a19565b9150819050919050565b7f526566756e64206661696c6564000000000000000000000000000000000000005f82015250565b5f611a81600d83611364565b9150611a8c82611a4d565b602082019050919050565b5f6020820190508181035f830152611aae81611a75565b9050919050565b7f4e6f742063616d706169676e206f776e657200000000000000000000000000005f82015250565b5f611ae9601283611364565b9150611af482611ab5565b602082019050919050565b5f6020820190508181035f830152611b1681611add565b9050919050565b7f4e6f742072656c65617361626c652079657400000000000000000000000000005f82015250565b5f611b51601283611364565b9150611b5c82611b1d565b602082019050919050565b5f6020820190508181035f830152611b7e81611b45565b9050919050565b7f476f616c206e6f742072656163686564000000000000000000000000000000005f82015250565b5f611bb9601083611364565b9150611bc482611b85565b602082019050919050565b5f6020820190508181035f830152611be681611bad565b9050919050565b7f416c72656164792077697468647261776e0000000000000000000000000000005f82015250565b5f611c21601183611364565b9150611c2c82611bed565b602082019050919050565b5f6020820190508181035f830152611c4e81611c15565b9050919050565b7f5472616e73666572206661696c656400000000000000000000000000000000005f82015250565b5f611c89600f83611364565b9150611c9482611c55565b602082019050919050565b5f6020820190508181035f830152611cb681611c7d565b9050919050565b7f476f616c206d757374206265203e2030000000000000000000000000000000005f82015250565b5f611cf1601083611364565b9150611cfc82611cbd565b602082019050919050565b5f6020820190508181035f830152611d1e81611ce5565b9050919050565b7f4475726174696f6e206d757374206265203e20300000000000000000000000005f82015250565b5f611d59601483611364565b9150611d6482611d25565b602082019050919050565b5f6020820190508181035f830152611d8681611d4d565b9050919050565b7f4e487b71000000000000000000000000000000000000000000000000000000005f52601160045260245ffd5b5f611dc4826112bd565b91507fffffffffffffffffffffffffffffffffffffffffffffffffffffffffffffffff8203611df657611df5611d8d565b5b600182019050919050565b5f611e0b826112bd565b9150611e16836112bd565b9250828202611e24816112bd565b91508282048414831517611e3b57611e3a611d8d565b5b5092915050565b5f611e4c826112bd565b9150611e57836112bd565b9250828201905080821115611e6f57611e6e611d8d565b5b92915050565b5f819050815f5260205f209050919050565b5f6020601f8301049050919050565b5f82821b905092915050565b5f60088302611ed17fffffffffffffffffffffffffffffffffffffffffffffffffffffffffffffffff82611e96565b611edb8683611e96565b95508019841693508086168417925050509392505050565b5f819050919050565b5f611f16611f11611f0c846112bd565b611ef3565b6112bd565b9050919050565b5f819050919050565b611f2f83611efc565b611f43611f3b82611f1d565b848454611ea2565b825550505050565b5f5f905090565b611f5a611f4b565b611f65818484611f26565b505050565b5b81811015611f8857611f7d5f82611f52565b600181019050611f6b565b5050565b601f821115611fcd57611f9e81611e75565b611fa784611e87565b81016020851015611fb6578190505b611fca611fc285611e87565b830182611f6a565b50505b505050565b5f82821c905092915050565b5f611fed5f1984600802611fd2565b1980831691505092915050565b5f6120058383611fde565b9150826002028217905092915050565b61201e8261135a565b67ffffffffffffffff8111156120375761203661164f565b5b612041825461183c565b61204c828285611f8c565b5f60209050601f83116001811461207d575f841561206b578287015190505b6120758582611ffa565b8655506120dc565b601f19841661208b86611e75565b5f5b828110156120b25784890151825560018201915060208501945060208101905061208d565b868310156120cf57848901516120cb601f891682611fde565b8355505b6001600288020188555050505b505050505050565b5f6060820190508181035f8301526120fc8186611392565b905061210b60208301856113ca565b61211860408301846113ca565b949350505050565b7f43616d706169676e20656e6465640000000000000000000000000000000000005f82015250565b5f612154600e83611364565b915061215f82612120565b602082019050919050565b5f6020820190508181035f83015261218181612148565b9050919050565b7f4e6f2076616c75650000000000000000000000000000000000000000000000005f82015250565b5f6121bc600883611364565b91506121c782612188565b602082019050919050565b5f6020820190508181035f8301526121e9816121b0565b9050919050565b5f6121fa826112bd565b9150612205836112bd565b925082820390508181111561221d5761221c611d8d565b5b9291505056fea2646970667358221220223f12eb3ba8f702b4ca59a81f22726f84ed0d7c00d00f615ce6fbc3994178d164736f6c634300081c0033",
  "linkReferences": {},
  "deployedLinkReferences": {},
  "immutableReferences": {},
  "inputSourceName": "project/contracts/Crowdfunding.sol",
  "buildInfoId": "solc-0_8_28-7c7e07203784baaa102927188e9daf949fa54657"
}