{
  "_format": "hh-sol-artifact-1",
  "contractName": "Crowdfunding",
  "sourceName": "contracts/Crowdfunding.sol",
  "abi": [
    {
      "inputs": [],
      "stateMutability": "nonpayable",
      "type": "constructor"
    },
    {
      "inputs": [],
      "name": "ReentrancyGuardReentrantCall",
      "type": "error"
    },
    {
      "anonymous": false,
      "inputs": [
        {
          "indexed": true,
          "internalType": "uint256",
          "name": "id",
          "type": "uint256"
        },
        {
          "indexed": false,
          "internalType": "bool",
          "name": "approved",
          "type": "bool"
        }
      ],
      "name": "Approved",
      "type": "event"
    },
    {
      "anonymous": false,
      "inputs": [
        {
          "indexed": true,
          "internalType": "uint256",
          "name": "id",
          "type": "uint256"
        },
        {
          "indexed": true,
          "internalType": "address",
          "name": "owner",
          "type": "address"
        },
        {
          "indexed": false,
          "internalType": "string",
          "name": "title",
          "type": "string"
        },
        {
          "indexed": false,
          "internalType": "uint256",
          "name": "goal",
          "type": "uint256"
        },
        {
          "indexed": false,
          "internalType": "uint256",
          "name": "deadline",
          "type": "uint256"
        }
      ],
      "name": "CampaignCreated",
      "type": "event"
    },
    {
      "anonymous": false,
      "inputs": [
        {
          "indexed": true,
          "internalType": "uint256",
          "name": "id",
          "type": "uint256"
        },
        {
          "indexed": true,
          "internalType": "address",
          "name": "contributor",
          "type": "address"
        },
        {
          "indexed": false,
          "internalType": "uint256",
          "name": "amount",
          "type": "uint256"
        }
      ],
      "name": "Contributed",
      "type": "event"
    },
    {
      "anonymous": false,
      "inputs": [
        {
          "indexed": true,
          "internalType": "uint256",
          "name": "id",
          "type": "uint256"
        },
        {
          "indexed": false,
          "internalType": "bool",
          "name": "held",
          "type": "bool"
        }
      ],
      "name": "HeldStatus",
      "type": "event"
    },
    {
      "anonymous": false,
      "inputs": [
        {
          "indexed": true,
          "internalType": "uint256",
          "name": "id",
          "type": "uint256"
        },
        {
          "indexed": false,
          "internalType": "string",
          "name": "media",
          "type": "string"
        }
      ],
      "name": "MediaUpdated",
      "type": "event"
    },
    {
      "anonymous": false,
      "inputs": [
        {
          "indexed": true,
          "internalType": "uint256",
          "name": "id",
          "type": "uint256"
        },
        {
          "indexed": true,
          "internalType": "address",
          "name": "contributor",
          "type": "address"
        },
        {
          "indexed": false,
          "internalType": "uint256",
          "name": "amount",
          "type": "uint256"
        }
      ],
      "name": "Refunded",
      "type": "event"
    },
    {
      "anonymous": false,
      "inputs": [
        {
          "indexed": true,
          "internalType": "uint256",
          "name": "id",
          "type": "uint256"
        },
        {
          "indexed": true,
          "internalType": "address",
          "name": "reporter",
          "type": "address"
        },
        {
          "indexed": false,
          "internalType": "uint256",
          "name": "totalReports",
          "type": "uint256"
        }
      ],
      "name": "Reported",
      "type": "event"
    },
    {
      "anonymous": false,
      "inputs": [
        {
          "indexed": true,
          "internalType": "uint256",
          "name": "id",
          "type": "uint256"
        },
        {
          "indexed": true,
          "internalType": "address",
          "name": "owner",
          "type": "address"
        },
        {
          "indexed": false,
          "internalType": "uint256",
          "name": "amount",
          "type": "uint256"
        }
      ],
      "name": "Withdrawn",
      "type": "event"
    },
    {
      "inputs": [],
      "name": "admin",
      "outputs": [
        {
          "internalType": "address",
          "name": "",
          "type": "address"
        }
      ],
      "stateMutability": "view",
      "type": "function"
    },
    {
      "inputs": [
        {
          "internalType": "uint256",
          "name": "_id",
          "type": "uint256"
        },
        {
          "internalType": "bool",
          "name": "_approved",
          "type": "bool"
        }
      ],
      "name": "approveCampaign",
      "outputs": [],
      "stateMutability": "nonpayable",
      "type": "function"
    },
    {
      "inputs": [
        {
          "internalType": "uint256",
          "name": "",
          "type": "uint256"
        }
      ],
      "name": "campaigns",
      "outputs": [
        {
          "internalType": "address",
          "name": "owner",
          "type": "address"
        },
        {
          "internalType": "string",
          "name": "title",
          "type": "string"
        },
        {
          "internalType": "string",
          "name": "description",
          "type": "string"
        },
        {
          "internalType": "uint256",
          "name": "goal",
          "type": "uint256"
        },
        {
          "internalType": "uint256",
          "name": "deadline",
          "type": "uint256"
        },
        {
          "internalType": "uint256",
          "name": "totalRaised",
          "type": "uint256"
        },
        {
          "internalType": "bool",
          "name": "withdrawn",
          "type": "bool"
        },
        {
          "internalType": "bool",
          "name": "exists",
          "type": "bool"
        },
        {
          "internalType": "string",
          "name": "media",
          "type": "string"
        },
        {
          "internalType": "bool",
          "name": "approved",
          "type": "bool"
        },
        {
          "internalType": "bool",
          "name": "held",
          "type": "bool"
        },
        {
          "internalType": "uint256",
          "name": "reports",
          "type": "uint256"
        },
        {
          "internalType": "string",
          "name": "projectLink",
          "type": "string"
        }
      ],
      "stateMutability": "view",
      "type": "function"
    },
    {
      "inputs": [
        {
          "internalType": "uint256",
          "name": "_id",
          "type": "uint256"
        }
      ],
      "name": "contribute",
      "outputs": [],
      "stateMutability": "payable",
      "type": "function"
    },
    {
      "inputs": [
        {
          "internalType": "uint256",
          "name": "",
          "type": "uint256"
        },
        {
          "internalType": "address",
          "name": "",
          "type": "address"
        }
      ],
      "name": "contributions",
      "outputs": [
        {
          "internalType": "uint256",
          "name": "",
          "type": "uint256"
        }
      ],
      "stateMutability": "view",
      "type": "function"
    },
    {
      "inputs": [
        {
          "internalType": "string",
          "name": "_title",
          "type": "string"
        },
        {
          "internalType": "string",
          "name": "_description",
          "type": "string"
        },
        {
          "internalType": "string",
          "name": "_media",
          "type": "string"
        },
        {
          "internalType": "string",
          "name": "_projectLink",
          "type": "string"
        },
        {
          "internalType": "uint256",
          "name": "_goal",
          "type": "uint256"
        },
        {
          "internalType": "uint256",
          "name": "_durationDays",
          "type": "uint256"
        }
      ],
      "name": "createCampaign",
      "outputs": [
        {
          "internalType": "uint256",
          "name": "",
          "type": "uint256"
        }
      ],
      "stateMutability": "nonpayable",
      "type": "function"
    },
    {
      "inputs": [
        {
          "internalType": "uint256",
          "name": "_id",
          "type": "uint256"
        }
      ],
      "name": "getCampaign",
      "outputs": [
        {
          "components": [
            {
              "internalType": "address",
              "name": "owner",
              "type": "address"
            },
            {
              "internalType": "string",
              "name": "title",
              "type": "string"
            },
            {
              "internalType": "string",
              "name": "description",
              "type": "string"
            },
            {
              "internalType": "uint256",
              "name": "goal",
              "type": "uint256"
            },
            {
              "internalType": "uint256",
              "name": "deadline",
              "type": "uint256"
            },
            {
              "internalType": "uint256",
              "name": "totalRaised",
              "type": "uint256"
            },
            {
              "internalType": "bool",
              "name": "withdrawn",
              "type": "bool"
            },
            {
              "internalType": "bool",
              "name": "exists",
              "type": "bool"
            },
            {
              "internalType": "string",
              "name": "media",
              "type": "string"
            },
            {
              "internalType": "bool",
              "name": "approved",
              "type": "bool"
            },
            {
              "internalType": "bool",
              "name": "held",
              "type": "bool"
            },
            {
              "internalType": "uint256",
              "name": "reports",
              "type": "uint256"
            },
            {
              "internalType": "string",
              "name": "projectLink",
              "type": "string"
            }
          ],
          "internalType": "struct Crowdfunding.Campaign",
          "name": "",
          "type": "tuple"
        }
      ],
      "stateMutability": "view",
      "type": "function"
    },
    {
      "inputs": [
        {
          "internalType": "uint256",
          "name": "_id",
          "type": "uint256"
        }
      ],
      "name": "getTimeLeft",
      "outputs": [
        {
          "internalType": "uint256",
          "name": "",
          "type": "uint256"
        }
      ],
      "stateMutability": "view",
      "type": "function"
    },
    {
      "inputs": [],
      "name": "nextId",
      "outputs": [
        {
          "internalType": "uint256",
          "name": "",
          "type": "uint256"
        }
      ],
      "stateMutability": "view",
      "type": "function"
    },
    {
      "inputs": [
        {
          "internalType": "uint256",
          "name": "_id",
          "type": "uint256"
        }
      ],
      "name": "refund",
      "outputs": [],
      "stateMutability": "nonpayable",
      "type": "function"
    },
    {
      "inputs": [
        {
          "internalType": "uint256",
          "name": "_id",
          "type": "uint256"
        }
      ],
      "name": "reportCampaign",
      "outputs": [],
      "stateMutability": "nonpayable",
      "type": "function"
    },
    {
      "inputs": [
        {
          "internalType": "uint256",
          "name": "_id",
          "type": "uint256"
        },
        {
          "internalType": "bool",
          "name": "_held",
          "type": "bool"
        }
      ],
      "name": "setHeld",
      "outputs": [],
      "stateMutability": "nonpayable",
      "type": "function"
    },
    {
      "inputs": [
        {
          "internalType": "uint256",
          "name": "_id",
          "type": "uint256"
        },
        {
          "internalType": "string",
          "name": "_media",
          "type": "string"
        }
      ],
      "name": "setMedia",
      "outputs": [],
      "stateMutability": "nonpayable",
      "type": "function"
    },
    {
      "inputs": [
        {
          "internalType": "uint256",
          "name": "_id",
          "type": "uint256"
        }
      ],
      "name": "withdraw",
      "outputs": [],
      "stateMutability": "nonpayable",
      "type": "function"
    }
  ],
  "bytecode": "0x6080604052348015600f57600080fd5b506001600055600480546001600160a01b03191633179055611ed9806100366000396000f3fe6080604052600436106100dd5760003560e01c80637fe696e31161007f578063c1cbbca711610059578063c1cbbca71461026f578063e8c5876314610282578063e8fb4fea146102a2578063f851a440146102c257600080fd5b80637fe696e31461020f5780639ec99cdc1461022f578063a8aee9401461024f57600080fd5b80632e1a7d4d116100bb5780632e1a7d4d146101665780633d891f59146101865780635598f8cc146101cc57806361b8ce8c146101f957600080fd5b8063141961bc146100e257806324005d5814610124578063278ecde114610146575b600080fd5b3480156100ee57600080fd5b506101026100fd366004611725565b6102fa565b60405161011b9d9c9b9a99989796959493929190611784565b60405180910390f35b34801561013057600080fd5b5061014461013f366004611725565b610599565b005b34801561015257600080fd5b50610144610161366004611725565b61064f565b34801561017257600080fd5b50610144610181366004611725565b610863565b34801561019257600080fd5b506101be6101a136600461183a565b600360209081526000928352604080842090915290825290205481565b60405190815260200161011b565b3480156101d857600080fd5b506101ec6101e7366004611725565b610af7565b60405161011b9190611876565b34801561020557600080fd5b506101be60015481565b34801561021b57600080fd5b5061014461022a366004611986565b610e97565b34801561023b57600080fd5b5061014461024a3660046119b0565b610f7c565b34801561025b57600080fd5b506101be61026a366004611ad3565b61106f565b61014461027d366004611725565b611381565b34801561028e57600080fd5b506101be61029d366004611725565b6115ad565b3480156102ae57600080fd5b506101446102bd366004611986565b61162a565b3480156102ce57600080fd5b506004546102e2906001600160a01b031681565b6040516001600160a01b03909116815260200161011b565b600260205260009081526040902080546001820180546001600160a01b03909216929161032690611ba5565b80601f016020809104026020016040519081016040528092919081815260200182805461035290611ba5565b801561039f5780601f106103745761010080835404028352916020019161039f565b820191906000526020600020905b81548152906001019060200180831161038257829003601f168201915b5050505050908060020180546103b490611ba5565b80601f01602080910402602001604051908101604052809291908181526020018280546103e090611ba5565b801561042d5780601f106104025761010080835404028352916020019161042d565b820191906000526020600020905b81548152906001019060200180831161041057829003601f168201915b50505050600383015460048401546005850154600686015460078701805496979496939550919360ff808316946101009093041692909161046d90611ba5565b80601f016020809104026020016040519081016040528092919081815260200182805461049990611ba5565b80156104e65780601f106104bb576101008083540402835291602001916104e6565b820191906000526020600020905b8154815290600101906020018083116104c957829003601f168201915b5050505060088301546009840154600a85018054949560ff80851696610100909504169450919261051690611ba5565b80601f016020809104026020016040519081016040528092919081815260200182805461054290611ba5565b801561058f5780601f106105645761010080835404028352916020019161058f565b820191906000526020600020905b81548152906001019060200180831161057257829003601f168201915b505050505090508d565b6000818152600260205260409020600601548190610100900460ff166105da5760405162461bcd60e51b81526004016105d190611bd9565b60405180910390fd5b60008281526002602052604081206009018054600192906105fc908490611c26565b9091555050600082815260026020908152604091829020600901549151918252339184917f0757a1246c8fde161b9e6d0f8685d6216950c1b3314b1852578230a9d330e960910160405180910390a35050565b6000818152600260205260409020600601548190610100900460ff166106875760405162461bcd60e51b81526004016105d190611bd9565b61068f6116fb565b6000828152600260205260409020600481015442116106dc5760405162461bcd60e51b8152602060048201526009602482015268139bdd08195b99195960ba1b60448201526064016105d1565b80600301548160050154106107225760405162461bcd60e51b815260206004820152600c60248201526b11dbd85b081c995858da195960a21b60448201526064016105d1565b60008381526003602090815260408083203384529091529020548061077d5760405162461bcd60e51b8152602060048201526011602482015270139bdd1a1a5b99c81d1bc81c99599d5b99607a1b60448201526064016105d1565b60008481526003602090815260408083203380855292528083208390555183908381818185875af1925050503d80600081146107d5576040519150601f19603f3d011682016040523d82523d6000602084013e6107da565b606091505b505090508061081b5760405162461bcd60e51b815260206004820152600d60248201526c1499599d5b990819985a5b1959609a1b60448201526064016105d1565b604051828152339086907f7ca5472b7ea78c2c0141c5a12ee6d170cf4ce8ed06be3d22c8252ddfc7a6a2c49060200160405180910390a350505061085f6001600055565b5050565b60008181526002602052604090205481906001600160a01b031633146108c05760405162461bcd60e51b81526020600482015260126024820152712737ba1031b0b6b830b4b3b71037bbb732b960711b60448201526064016105d1565b6000828152600260205260409020600601548290610100900460ff166108f85760405162461bcd60e51b81526004016105d190611bd9565b6109006116fb565b600083815260026020526040902060048101544210158061092957508060030154816005015410155b6109665760405162461bcd60e51b815260206004820152600e60248201526d4e6f742072656c65617361626c6560901b60448201526064016105d1565b8060030154816005015410156109b15760405162461bcd60e51b815260206004820152601060248201526f11dbd85b081b9bdd081c995858da195960821b60448201526064016105d1565b600681015460ff16156109fa5760405162461bcd60e51b815260206004820152601160248201527020b63932b0b23c903bb4ba34323930bbb760791b60448201526064016105d1565b60068101805460ff19166001179055600581015481546040516000916001600160a01b03169083908381818185875af1925050503d8060008114610a5a576040519150601f19603f3d011682016040523d82523d6000602084013e610a5f565b606091505b5050905080610aa25760405162461bcd60e51b815260206004820152600f60248201526e151c985b9cd9995c8819985a5b1959608a1b60448201526064016105d1565b82546040518381526001600160a01b039091169087907fcf7d23a3cbe4e8b36ff82fd1b05b1b17373dc7804b4ebbd6e2356716ef2023729060200160405180910390a3505050610af26001600055565b505050565b610b73604051806101a0016040528060006001600160a01b0316815260200160608152602001606081526020016000815260200160008152602001600081526020016000151581526020016000151581526020016060815260200160001515815260200160001515815260200160008152602001606081525090565b6000828152600260205260409020600601548290610100900460ff16610bab5760405162461bcd60e51b81526004016105d190611bd9565b60008381526002602090815260409182902082516101a0810190935280546001600160a01b031683526001810180549192840191610be890611ba5565b80601f0160208091040260200160405190810160405280929190818152602001828054610c1490611ba5565b8015610c615780601f10610c3657610100808354040283529160200191610c61565b820191906000526020600020905b815481529060010190602001808311610c4457829003601f168201915b50505050508152602001600282018054610c7a90611ba5565b80601f0160208091040260200160405190810160405280929190818152602001828054610ca690611ba5565b8015610cf35780601f10610cc857610100808354040283529160200191610cf3565b820191906000526020600020905b815481529060010190602001808311610cd657829003601f168201915b5050509183525050600382015460208201526004820154604082015260058201546060820152600682015460ff8082161515608084015261010090910416151560a082015260078201805460c090920191610d4d90611ba5565b80601f0160208091040260200160405190810160405280929190818152602001828054610d7990611ba5565b8015610dc65780601f10610d9b57610100808354040283529160200191610dc6565b820191906000526020600020905b815481529060010190602001808311610da957829003601f168201915b5050509183525050600882015460ff80821615156020840152610100909104161515604082015260098201546060820152600a82018054608090920191610e0c90611ba5565b80601f0160208091040260200160405190810160405280929190818152602001828054610e3890611ba5565b8015610e855780601f10610e5a57610100808354040283529160200191610e85565b820191906000526020600020905b815481529060010190602001808311610e6857829003601f168201915b50505050508152505091505b50919050565b6004546001600160a01b03163314610edd5760405162461bcd60e51b81526020600482015260096024820152682737ba1030b236b4b760b91b60448201526064016105d1565b6000828152600260205260409020600601548290610100900460ff16610f155760405162461bcd60e51b81526004016105d190611bd9565b6000838152600260205260409081902060080180548415156101000261ff00199091161790555183907fa118d339cf22475e5208da14efc92b4be538c3101e0ab0fd845fccb895778e8090610f6f90851515815260200190565b60405180910390a2505050565b60008381526002602052604090205483906001600160a01b03163314610fd95760405162461bcd60e51b81526020600482015260126024820152712737ba1031b0b6b830b4b3b71037bbb732b960711b60448201526064016105d1565b6000848152600260205260409020600601548490610100900460ff166110115760405162461bcd60e51b81526004016105d190611bd9565b600085815260026020526040902060070161102d848683611c8d565b50847f0eb5fd576724414759410f89b877b41f4994120ff86534b0e3faa1fdc63e1c918585604051611060929190611d4d565b60405180910390a25050505050565b6000808751116110b25760405162461bcd60e51b815260206004820152600e60248201526d151a5d1b19481c995c5d5a5c995960921b60448201526064016105d1565b60008651116110fa5760405162461bcd60e51b815260206004820152601460248201527311195cd8dc9a5c1d1a5bdb881c995c5d5a5c995960621b60448201526064016105d1565b6000831161113d5760405162461bcd60e51b815260206004820152601060248201526f0476f616c206d757374206265203e20360841b60448201526064016105d1565b600082116111845760405162461bcd60e51b815260206004820152601460248201527304475726174696f6e206d757374206265203e20360641b60448201526064016105d1565b600180546000918261119583611d7c565b919050559050604051806101a00160405280336001600160a01b0316815260200189815260200188815260200185815260200184620151806111d79190611d95565b6111e19042611c26565b8152600060208083018290526040808401839052600160608501819052608085018c905260a0850184905260c0850184905260e085018490526101009094018a905285835260028252909120835181546001600160a01b0319166001600160a01b0390911617815590830151909182019061125c9082611dac565b50604082015160028201906112719082611dac565b50606082015160038201556080820151600482015560a0820151600582015560c082015160068201805460e085015161ffff1990911692151561ff00191692909217610100921515830217905582015160078201906112d09082611dac565b5061012082015160088201805461014085015115156101000261ff00199315159390931661ffff19909116179190911790556101608201516009820155610180820151600a8201906113229082611dac565b50505060008181526002602052604090819020600401549051339183917fdc26653af5b99b2da33e2ad69ee6600d9aeccc82b034501db4338309615ca2389161136e918d918a91611e6b565b60405180910390a3979650505050505050565b6000818152600260205260409020600601548190610100900460ff166113b95760405162461bcd60e51b81526004016105d190611bd9565b6113c16116fb565b6000828152600260205260409020600881015460ff166114125760405162461bcd60e51b815260206004820152600c60248201526b139bdd08185c1c1c9bdd995960a21b60448201526064016105d1565b6008810154610100900460ff161561145c5760405162461bcd60e51b815260206004820152600d60248201526c10d85b5c185a59db881a195b19609a1b60448201526064016105d1565b600681015460ff16156114a55760405162461bcd60e51b815260206004820152601160248201527020b63932b0b23c903bb4ba34323930bbb760791b60448201526064016105d1565b806004015442106114e95760405162461bcd60e51b815260206004820152600e60248201526d10d85b5c185a59db88195b99195960921b60448201526064016105d1565b600034116115245760405162461bcd60e51b81526020600482015260086024820152674e6f2076616c756560c01b60448201526064016105d1565b348160050160008282546115389190611c26565b9091555050600083815260036020908152604080832033845290915281208054349290611566908490611c26565b9091555050604051348152339084907fb2ed2e021651f85a4754a44651fc09ac5141bc0329ce4dfe8dd712a5d04a8b399060200160405180910390a35061085f6001600055565b6000818152600260205260408120600601548290610100900460ff166115e55760405162461bcd60e51b81526004016105d190611bd9565b60008381526002602052604090206004015442106116065760009150610e91565b600083815260026020526040902060040154611623904290611e90565b9392505050565b6004546001600160a01b031633146116705760405162461bcd60e51b81526020600482015260096024820152682737ba1030b236b4b760b91b60448201526064016105d1565b6000828152600260205260409020600601548290610100900460ff166116a85760405162461bcd60e51b81526004016105d190611bd9565b600083815260026020908152604091829020600801805460ff1916851515908117909155915191825284917fb3932da477fe5d6c8ff2eafef050c0f3a1af18fc07121001482600f36f3715d89101610f6f565b60026000540361171e57604051633ee5aeb560e01b815260040160405180910390fd5b6002600055565b60006020828403121561173757600080fd5b5035919050565b6000815180845260005b8181101561176457602081850181015186830182015201611748565b506000602082860101526020601f19601f83011685010191505092915050565b6001600160a01b038e1681526101a0602082015260006117a86101a083018f61173e565b82810360408401526117ba818f61173e565b90508c60608401528b60808401528a60a08401526117dc60c084018b15159052565b88151560e08401528281036101008401526117f7818961173e565b871515610120850152905085151561014084015284610160840152828103610180840152611825818561173e565b9150509e9d5050505050505050505050505050565b6000806040838503121561184d57600080fd5b8235915060208301356001600160a01b038116811461186b57600080fd5b809150509250929050565b602081526118906020820183516001600160a01b03169052565b600060208301516101a060408401526118ad6101c084018261173e565b90506040840151601f198483030160608501526118ca828261173e565b91505060608401516080840152608084015160a084015260a084015160c084015260c08401516118fe60e085018215159052565b5060e084015180151561010085015250610100840151838203601f190161012085015261192b828261173e565b91505061012084015161194361014085018215159052565b5061014084015180151561016085015250610160840151610180840152610180840151601f19848303016101a085015261197d828261173e565b95945050505050565b6000806040838503121561199957600080fd5b823591506020830135801515811461186b57600080fd5b6000806000604084860312156119c557600080fd5b83359250602084013567ffffffffffffffff8111156119e357600080fd5b8401601f810186136119f457600080fd5b803567ffffffffffffffff811115611a0b57600080fd5b866020828401011115611a1d57600080fd5b939660209190910195509293505050565b634e487b7160e01b600052604160045260246000fd5b600082601f830112611a5557600080fd5b813567ffffffffffffffff811115611a6f57611a6f611a2e565b604051601f8201601f19908116603f0116810167ffffffffffffffff81118282101715611a9e57611a9e611a2e565b604052818152838201602001851015611ab657600080fd5b816020850160208301376000918101602001919091529392505050565b60008060008060008060c08789031215611aec57600080fd5b863567ffffffffffffffff811115611b0357600080fd5b611b0f89828a01611a44565b965050602087013567ffffffffffffffff811115611b2c57600080fd5b611b3889828a01611a44565b955050604087013567ffffffffffffffff811115611b5557600080fd5b611b6189828a01611a44565b945050606087013567ffffffffffffffff811115611b7e57600080fd5b611b8a89828a01611a44565b9699959850939660808101359560a090910135945092505050565b600181811c90821680611bb957607f821691505b602082108103610e9157634e487b7160e01b600052602260045260246000fd5b60208082526017908201527f43616d706169676e20646f6573206e6f74206578697374000000000000000000604082015260600190565b634e487b7160e01b600052601160045260246000fd5b80820180821115611c3957611c39611c10565b92915050565b601f821115610af257806000526020600020601f840160051c81016020851015611c665750805b601f840160051c820191505b81811015611c865760008155600101611c72565b5050505050565b67ffffffffffffffff831115611ca557611ca5611a2e565b611cb983611cb38354611ba5565b83611c3f565b6000601f841160018114611ced5760008515611cd55750838201355b600019600387901b1c1916600186901b178355611c86565b600083815260209020601f19861690835b82811015611d1e5786850135825560209485019460019092019101611cfe565b5086821015611d3b5760001960f88860031b161c19848701351681555b505060018560011b0183555050505050565b60208152816020820152818360408301376000818301604090810191909152601f909201601f19160101919050565b600060018201611d8e57611d8e611c10565b5060010190565b8082028115828204841417611c3957611c39611c10565b815167ffffffffffffffff811115611dc657611dc6611a2e565b611dda81611dd48454611ba5565b84611c3f565b6020601f821160018114611e0e5760008315611df65750848201515b600019600385901b1c1916600184901b178455611c86565b600084815260208120601f198516915b82811015611e3e5787850151825560209485019460019092019101611e1e565b5084821015611e5c5786840151600019600387901b60f8161c191681555b50505050600190811b01905550565b606081526000611e7e606083018661173e565b60208301949094525060400152919050565b81810381811115611c3957611c39611c1056fea264697066735822122021da8caf65f4d088445904cadaf4d6734f01c366b9305a528a53e3574b8a347464736f6c634300081c0033",
  "linkReferences": {},
  "deployedLinkReferences": {}
}