{
  "_format": "hh-sol-artifact-1",
  "contractName": "Crowdfunding",
  "sourceName": "contracts/Crowdfunding.sol",
  "abi": [
    {
      "inputs": [],
      "name": "ReentrancyGuardReentrantCall",
      "type": "error"
    },
    {
      "anonymous": false,
      "inputs": [
        {
          "indexed": true,
          "internalType": "uint256",
          "name": "id",
          "type": "uint256"
        },
        {
          "indexed": true,
          "internalType": "address",
          "name": "owner",
          "type": "address"
        },
        {
          "indexed": false,
          "internalType": "string",
          "name": "title",
          "type": "string"
        },
        {
          "indexed": false,
          "internalType": "uint256",
          "name": "goal",
          "type": "uint256"
        },
        {
          "indexed": false,
          "internalType": "uint256",
          "name": "deadline",
          "type": "uint256"
        }
      ],
      "name": "CampaignCreated",
      "type": "event"
    },
    {
      "anonymous": false,
      "inputs": [
        {
          "indexed": true,
          "internalType": "uint256",
          "name": "id",
          "type": "uint256"
        },
        {
          "indexed": true,
          "internalType": "address",
          "name": "contributor",
          "type": "address"
        },
        {
          "indexed": false,
          "internalType": "uint256",
          "name": "amount",
          "type": "uint256"
        }
      ],
      "name": "Contributed",
      "type": "event"
    },
    {
      "anonymous": false,
      "inputs": [
        {
          "indexed": true,
          "internalType": "uint256",
          "name": "id",
          "type": "uint256"
        },
        {
          "indexed": true,
          "internalType": "address",
          "name": "contributor",
          "type": "address"
        },
        {
          "indexed": false,
          "internalType": "uint256",
          "name": "amount",
          "type": "uint256"
        }
      ],
      "name": "Refunded",
      "type": "event"
    },
    {
      "anonymous": false,
      "inputs": [
        {
          "indexed": true,
          "internalType": "uint256",
          "name": "id",
          "type": "uint256"
        },
        {
          "indexed": true,
          "internalType": "address",
          "name": "owner",
          "type": "address"
        },
        {
          "indexed": false,
          "internalType": "uint256",
          "name": "amount",
          "type": "uint256"
        }
      ],
      "name": "Withdrawn",
      "type": "event"
    },
    {
      "inputs": [
        {
          "internalType": "uint256",
          "name": "",
          "type": "uint256"
        }
      ],
      "name": "campaigns",
      "outputs": [
        {
          "internalType": "address",
          "name": "owner",
          "type": "address"
        },
        {
          "internalType": "string",
          "name": "title",
          "type": "string"
        },
        {
          "internalType": "string",
          "name": "description",
          "type": "string"
        },
        {
          "internalType": "uint256",
          "name": "goal",
          "type": "uint256"
        },
        {
          "internalType": "uint256",
          "name": "deadline",
          "type": "uint256"
        },
        {
          "internalType": "uint256",
          "name": "totalRaised",
          "type": "uint256"
        },
        {
          "internalType": "bool",
          "name": "withdrawn",
          "type": "bool"
        },
        {
          "internalType": "bool",
          "name": "exists",
          "type": "bool"
        }
      ],
      "stateMutability": "view",
      "type": "function"
    },
    {
      "inputs": [
        {
          "internalType": "uint256",
          "name": "_id",
          "type": "uint256"
        }
      ],
      "name": "contribute",
      "outputs": [],
      "stateMutability": "payable",
      "type": "function"
    },
    {
      "inputs": [
        {
          "internalType": "uint256",
          "name": "",
          "type": "uint256"
        },
        {
          "internalType": "address",
          "name": "",
          "type": "address"
        }
      ],
      "name": "contributions",
      "outputs": [
        {
          "internalType": "uint256",
          "name": "",
          "type": "uint256"
        }
      ],
      "stateMutability": "view",
      "type": "function"
    },
    {
      "inputs": [
        {
          "internalType": "string",
          "name": "_title",
          "type": "string"
        },
        {
          "internalType": "string",
          "name": "_description",
          "type": "string"
        },
        {
          "internalType": "uint256",
          "name": "_goal",
          "type": "uint256"
        },
        {
          "internalType": "uint256",
          "name": "_durationDays",
          "type": "uint256"
        }
      ],
      "name": "createCampaign",
      "outputs": [
        {
          "internalType": "uint256",
          "name": "",
          "type": "uint256"
        }
      ],
      "stateMutability": "nonpayable",
      "type": "function"
    },
    {
      "inputs": [
        {
          "internalType": "uint256",
          "name": "_id",
          "type": "uint256"
        }
      ],
      "name": "getCampaign",
      "outputs": [
        {
          "components": [
            {
              "internalType": "address",
              "name": "owner",
              "type": "address"
            },
            {
              "internalType": "string",
              "name": "title",
              "type": "string"
            },
            {
              "internalType": "string",
              "name": "description",
              "type": "string"
            },
            {
              "internalType": "uint256",
              "name": "goal",
              "type": "uint256"
            },
            {
              "internalType": "uint256",
              "name": "deadline",
              "type": "uint256"
            },
            {
              "internalType": "uint256",
              "name": "totalRaised",
              "type": "uint256"
            },
            {
              "internalType": "bool",
              "name": "withdrawn",
              "type": "bool"
            },
            {
              "internalType": "bool",
              "name": "exists",
              "type": "bool"
            }
          ],
          "internalType": "struct Crowdfunding.Campaign",
          "name": "",
          "type": "tuple"
        }
      ],
      "stateMutability": "view",
      "type": "function"
    },
    {
      "inputs": [
        {
          "internalType": "uint256",
          "name": "_id",
          "type": "uint256"
        }
      ],
      "name": "getTimeLeft",
      "outputs": [
        {
          "internalType": "uint256",
          "name": "",
          "type": "uint256"
        }
      ],
      "stateMutability": "view",
      "type": "function"
    },
    {
      "inputs": [],
      "name": "nextId",
      "outputs": [
        {
          "internalType": "uint256",
          "name": "",
          "type": "uint256"
        }
      ],
      "stateMutability": "view",
      "type": "function"
    },
    {
      "inputs": [
        {
          "internalType": "uint256",
          "name": "_id",
          "type": "uint256"
        }
      ],
      "name": "refund",
      "outputs": [],
      "stateMutability": "nonpayable",
      "type": "function"
    },
    {
      "inputs": [
        {
          "internalType": "uint256",
          "name": "_id",
          "type": "uint256"
        }
      ],
      "name": "withdraw",
      "outputs": [],
      "stateMutability": "nonpayable",
      "type": "function"
    }
  ],
  "bytecode": "0x6080604052348015600f57600080fd5b506001600055611362806100246000396000f3fe6080604052600436106100865760003560e01c80635598f8cc116100595780635598f8cc1461015057806361b8ce8c1461017d578063a318f26914610193578063c1cbbca7146101b3578063e8c58763146101c657600080fd5b8063141961bc1461008b578063278ecde1146100c85780632e1a7d4d146100ea5780633d891f591461010a575b600080fd5b34801561009757600080fd5b506100ab6100a6366004610e65565b6101e6565b6040516100bf989796959493929190610ec4565b60405180910390f35b3480156100d457600080fd5b506100e86100e3366004610e65565b610348565b005b3480156100f657600080fd5b506100e8610105366004610e65565b610566565b34801561011657600080fd5b50610142610125366004610f2b565b600360209081526000928352604080842090915290825290205481565b6040519081526020016100bf565b34801561015c57600080fd5b5061017061016b366004610e65565b6107fe565b6040516100bf9190610f67565b34801561018957600080fd5b5061014260015481565b34801561019f57600080fd5b506101426101ae3660046110a4565b610a23565b6100e86101c1366004610e65565b610c29565b3480156101d257600080fd5b506101426101e1366004610e65565b610dc8565b600260205260009081526040902080546001820180546001600160a01b0390921692916102129061111d565b80601f016020809104026020016040519081016040528092919081815260200182805461023e9061111d565b801561028b5780601f106102605761010080835404028352916020019161028b565b820191906000526020600020905b81548152906001019060200180831161026e57829003601f168201915b5050505050908060020180546102a09061111d565b80601f01602080910402602001604051908101604052809291908181526020018280546102cc9061111d565b80156103195780601f106102ee57610100808354040283529160200191610319565b820191906000526020600020905b8154815290600101906020018083116102fc57829003601f168201915b505050506003830154600484015460058501546006909501549394919390925060ff8082169161010090041688565b6000818152600260205260409020600601548190610100900460ff166103895760405162461bcd60e51b815260040161038090611151565b60405180910390fd5b610391610e3b565b600082815260026020526040902060048101544210156103df5760405162461bcd60e51b8152602060048201526009602482015268139bdd08195b99195960ba1b6044820152606401610380565b80600301548160050154106104255760405162461bcd60e51b815260206004820152600c60248201526b11dbd85b081c995858da195960a21b6044820152606401610380565b6000838152600360209081526040808320338452909152902054806104805760405162461bcd60e51b8152602060048201526011602482015270139bdd1a1a5b99c81d1bc81c99599d5b99607a1b6044820152606401610380565b60008481526003602090815260408083203380855292528083208390555183908381818185875af1925050503d80600081146104d8576040519150601f19603f3d011682016040523d82523d6000602084013e6104dd565b606091505b505090508061051e5760405162461bcd60e51b815260206004820152600d60248201526c1499599d5b990819985a5b1959609a1b6044820152606401610380565b604051828152339086907f7ca5472b7ea78c2c0141c5a12ee6d170cf4ce8ed06be3d22c8252ddfc7a6a2c49060200160405180910390a35050506105626001600055565b5050565b6000818152600260205260409020600601548190610100900460ff1661059e5760405162461bcd60e51b815260040161038090611151565b60008281526002602052604090205482906001600160a01b031633146105fb5760405162461bcd60e51b81526020600482015260126024820152712737ba1031b0b6b830b4b3b71037bbb732b960711b6044820152606401610380565b610603610e3b565b600083815260026020526040902060048101544210158061062c57508060030154816005015410155b61066d5760405162461bcd60e51b8152602060048201526012602482015271139bdd081c995b19585cd8589b19481e595d60721b6044820152606401610380565b8060030154816005015410156106b85760405162461bcd60e51b815260206004820152601060248201526f11dbd85b081b9bdd081c995858da195960821b6044820152606401610380565b600681015460ff16156107015760405162461bcd60e51b815260206004820152601160248201527020b63932b0b23c903bb4ba34323930bbb760791b6044820152606401610380565b60068101805460ff19166001179055600581015481546040516000916001600160a01b03169083908381818185875af1925050503d8060008114610761576040519150601f19603f3d011682016040523d82523d6000602084013e610766565b606091505b50509050806107a95760405162461bcd60e51b815260206004820152600f60248201526e151c985b9cd9995c8819985a5b1959608a1b6044820152606401610380565b82546040518381526001600160a01b039091169087907fcf7d23a3cbe4e8b36ff82fd1b05b1b17373dc7804b4ebbd6e2356716ef2023729060200160405180910390a35050506107f96001600055565b505050565b61085360405180610100016040528060006001600160a01b0316815260200160608152602001606081526020016000815260200160008152602001600081526020016000151581526020016000151581525090565b6000828152600260205260409020600601548290610100900460ff1661088b5760405162461bcd60e51b815260040161038090611151565b6000838152600260209081526040918290208251610100810190935280546001600160a01b0316835260018101805491928401916108c89061111d565b80601f01602080910402602001604051908101604052809291908181526020018280546108f49061111d565b80156109415780601f1061091657610100808354040283529160200191610941565b820191906000526020600020905b81548152906001019060200180831161092457829003601f168201915b5050505050815260200160028201805461095a9061111d565b80601f01602080910402602001604051908101604052809291908181526020018280546109869061111d565b80156109d35780601f106109a8576101008083540402835291602001916109d3565b820191906000526020600020905b8154815290600101906020018083116109b657829003601f168201915b505050918352505060038201546020820152600482015460408201526005820154606082015260069091015460ff8082161515608084015261010090910416151560a09091015291505b50919050565b6000808311610a675760405162461bcd60e51b815260206004820152601060248201526f0476f616c206d757374206265203e20360841b6044820152606401610380565b60008211610aae5760405162461bcd60e51b815260206004820152601460248201527304475726174696f6e206d757374206265203e20360641b6044820152606401610380565b6001805460009182610abf8361119e565b919050559050604051806101000160405280336001600160a01b031681526020018781526020018681526020018581526020018462015180610b0191906111b7565b610b0b90426111d4565b81526000602080830182905260408084018390526001606090940184905285835260028252909120835181546001600160a01b0319166001600160a01b03909116178155908301519091820190610b629082611235565b5060408201516002820190610b779082611235565b5060608201516003820155608082015160048083019190915560a0830151600583015560c08301516006909201805460e09094015115156101000261ff00199315159390931661ffff19909416939093179190911790915560008281526002602052604090819020909101549051339183917fdc26653af5b99b2da33e2ad69ee6600d9aeccc82b034501db4338309615ca23891610c18918b918a916112f4565b60405180910390a395945050505050565b6000818152600260205260409020600601548190610100900460ff16610c615760405162461bcd60e51b815260040161038090611151565b610c69610e3b565b6000828152600260205260409020600681015460ff1615610cc05760405162461bcd60e51b815260206004820152601160248201527020b63932b0b23c903bb4ba34323930bbb760791b6044820152606401610380565b80600401544210610d045760405162461bcd60e51b815260206004820152600e60248201526d10d85b5c185a59db88195b99195960921b6044820152606401610380565b60003411610d3f5760405162461bcd60e51b81526020600482015260086024820152674e6f2076616c756560c01b6044820152606401610380565b34816005016000828254610d5391906111d4565b9091555050600083815260036020908152604080832033845290915281208054349290610d819084906111d4565b9091555050604051348152339084907fb2ed2e021651f85a4754a44651fc09ac5141bc0329ce4dfe8dd712a5d04a8b399060200160405180910390a3506105626001600055565b6000818152600260205260408120600601548290610100900460ff16610e005760405162461bcd60e51b815260040161038090611151565b600083815260026020526040902060048101544210610e23576000925050610a1d565b428160040154610e339190611319565b949350505050565b600260005403610e5e57604051633ee5aeb560e01b815260040160405180910390fd5b6002600055565b600060208284031215610e7757600080fd5b5035919050565b6000815180845260005b81811015610ea457602081850181015186830182015201610e88565b506000602082860101526020601f19601f83011685010191505092915050565b6001600160a01b038916815261010060208201819052600090610ee99083018a610e7e565b8281036040840152610efb818a610e7e565b60608401989098525050608081019490945260a0840192909252151560c0830152151560e0909101529392505050565b60008060408385031215610f3e57600080fd5b8235915060208301356001600160a01b0381168114610f5c57600080fd5b809150509250929050565b602080825282516001600160a01b0316828201528201516101006040830152600090610f97610120840182610e7e565b90506040840151601f19848303016060850152610fb48282610e7e565b91505060608401516080840152608084015160a084015260a084015160c084015260c0840151610fe860e085018215159052565b5060e0840151801515610100850152509392505050565b634e487b7160e01b600052604160045260246000fd5b600082601f83011261102657600080fd5b813567ffffffffffffffff81111561104057611040610fff565b604051601f8201601f19908116603f0116810167ffffffffffffffff8111828210171561106f5761106f610fff565b60405281815283820160200185101561108757600080fd5b816020850160208301376000918101602001919091529392505050565b600080600080608085870312156110ba57600080fd5b843567ffffffffffffffff8111156110d157600080fd5b6110dd87828801611015565b945050602085013567ffffffffffffffff8111156110fa57600080fd5b61110687828801611015565b949794965050505060408301359260600135919050565b600181811c9082168061113157607f821691505b602082108103610a1d57634e487b7160e01b600052602260045260246000fd5b60208082526017908201527f43616d706169676e20646f6573206e6f74206578697374000000000000000000604082015260600190565b634e487b7160e01b600052601160045260246000fd5b6000600182016111b0576111b0611188565b5060010190565b80820281158282048414176111ce576111ce611188565b92915050565b808201808211156111ce576111ce611188565b601f8211156107f957806000526020600020601f840160051c8101602085101561120e5750805b601f840160051c820191505b8181101561122e576000815560010161121a565b5050505050565b815167ffffffffffffffff81111561124f5761124f610fff565b6112638161125d845461111d565b846111e7565b6020601f821160018114611297576000831561127f5750848201515b600019600385901b1c1916600184901b17845561122e565b600084815260208120601f198516915b828110156112c757878501518255602094850194600190920191016112a7565b50848210156112e55786840151600019600387901b60f8161c191681555b50505050600190811b01905550565b6060815260006113076060830186610e7e565b60208301949094525060400152919050565b818103818111156111ce576111ce61118856fea26469706673582212207eae4146fc6d775313e077cd9182e7f04853ea4867180aa9f81dcb902bacfd0f64736f6c634300081c0033",
  "linkReferences": {},
  "deployedLinkReferences": {}
}